{
  "_format": "hh-sol-artifact-1",
  "contractName": "TokenMaster",
  "sourceName": "contracts/TokenMaster.sol",
  "abi": [
    {
      "inputs": [
        {
          "internalType": "string",
          "name": "_name",
          "type": "string"
        },
        {
          "internalType": "string",
          "name": "_symbol",
          "type": "string"
        }
      ],
      "stateMutability": "nonpayable",
      "type": "constructor"
    },
    {
      "anonymous": false,
      "inputs": [
        {
          "indexed": true,
          "internalType": "address",
          "name": "owner",
          "type": "address"
        },
        {
          "indexed": true,
          "internalType": "address",
          "name": "approved",
          "type": "address"
        },
        {
          "indexed": true,
          "internalType": "uint256",
          "name": "tokenId",
          "type": "uint256"
        }
      ],
      "name": "Approval",
      "type": "event"
    },
    {
      "anonymous": false,
      "inputs": [
        {
          "indexed": true,
          "internalType": "address",
          "name": "owner",
          "type": "address"
        },
        {
          "indexed": true,
          "internalType": "address",
          "name": "operator",
          "type": "address"
        },
        {
          "indexed": false,
          "internalType": "bool",
          "name": "approved",
          "type": "bool"
        }
      ],
      "name": "ApprovalForAll",
      "type": "event"
    },
    {
      "anonymous": false,
      "inputs": [
        {
          "indexed": true,
          "internalType": "address",
          "name": "from",
          "type": "address"
        },
        {
          "indexed": true,
          "internalType": "address",
          "name": "to",
          "type": "address"
        },
        {
          "indexed": true,
          "internalType": "uint256",
          "name": "tokenId",
          "type": "uint256"
        }
      ],
      "name": "Transfer",
      "type": "event"
    },
    {
      "inputs": [
        {
          "internalType": "address",
          "name": "to",
          "type": "address"
        },
        {
          "internalType": "uint256",
          "name": "tokenId",
          "type": "uint256"
        }
      ],
      "name": "approve",
      "outputs": [],
      "stateMutability": "nonpayable",
      "type": "function"
    },
    {
      "inputs": [
        {
          "internalType": "address",
          "name": "owner",
          "type": "address"
        }
      ],
      "name": "balanceOf",
      "outputs": [
        {
          "internalType": "uint256",
          "name": "",
          "type": "uint256"
        }
      ],
      "stateMutability": "view",
      "type": "function"
    },
    {
      "inputs": [
        {
          "internalType": "uint256",
          "name": "tokenId",
          "type": "uint256"
        }
      ],
      "name": "getApproved",
      "outputs": [
        {
          "internalType": "address",
          "name": "",
          "type": "address"
        }
      ],
      "stateMutability": "view",
      "type": "function"
    },
    {
      "inputs": [
        {
          "internalType": "uint256",
          "name": "_id",
          "type": "uint256"
        }
      ],
      "name": "getOccasion",
      "outputs": [
        {
          "components": [
            {
              "internalType": "uint256",
              "name": "id",
              "type": "uint256"
            },
            {
              "internalType": "string",
              "name": "name",
              "type": "string"
            },
            {
              "internalType": "uint256",
              "name": "cost",
              "type": "uint256"
            },
            {
              "internalType": "uint256",
              "name": "tickets",
              "type": "uint256"
            },
            {
              "internalType": "uint256",
              "name": "maxTickets",
              "type": "uint256"
            },
            {
              "internalType": "string",
              "name": "date",
              "type": "string"
            },
            {
              "internalType": "string",
              "name": "time",
              "type": "string"
            },
            {
              "internalType": "string",
              "name": "location",
              "type": "string"
            }
          ],
          "internalType": "struct TokenMaster.Occasion",
          "name": "",
          "type": "tuple"
        }
      ],
      "stateMutability": "view",
      "type": "function"
    },
    {
      "inputs": [
        {
          "internalType": "uint256",
          "name": "_id",
          "type": "uint256"
        }
      ],
      "name": "getSeatsTaken",
      "outputs": [
        {
          "internalType": "uint256[]",
          "name": "",
          "type": "uint256[]"
        }
      ],
      "stateMutability": "view",
      "type": "function"
    },
    {
      "inputs": [
        {
          "internalType": "uint256",
          "name": "",
          "type": "uint256"
        },
        {
          "internalType": "address",
          "name": "",
          "type": "address"
        }
      ],
      "name": "hasBought",
      "outputs": [
        {
          "internalType": "bool",
          "name": "",
          "type": "bool"
        }
      ],
      "stateMutability": "view",
      "type": "function"
    },
    {
      "inputs": [
        {
          "internalType": "address",
          "name": "owner",
          "type": "address"
        },
        {
          "internalType": "address",
          "name": "operator",
          "type": "address"
        }
      ],
      "name": "isApprovedForAll",
      "outputs": [
        {
          "internalType": "bool",
          "name": "",
          "type": "bool"
        }
      ],
      "stateMutability": "view",
      "type": "function"
    },
    {
      "inputs": [
        {
          "internalType": "string",
          "name": "_name",
          "type": "string"
        },
        {
          "internalType": "uint256",
          "name": "_cost",
          "type": "uint256"
        },
        {
          "internalType": "uint256",
          "name": "_maxTickets",
          "type": "uint256"
        },
        {
          "internalType": "string",
          "name": "_date",
          "type": "string"
        },
        {
          "internalType": "string",
          "name": "_time",
          "type": "string"
        },
        {
          "internalType": "string",
          "name": "_location",
          "type": "string"
        }
      ],
      "name": "list",
      "outputs": [],
      "stateMutability": "nonpayable",
      "type": "function"
    },
    {
      "inputs": [
        {
          "internalType": "uint256",
          "name": "_id",
          "type": "uint256"
        },
        {
          "internalType": "uint256",
          "name": "_seat",
          "type": "uint256"
        }
      ],
      "name": "mint",
      "outputs": [],
      "stateMutability": "payable",
      "type": "function"
    },
    {
      "inputs": [],
      "name": "name",
      "outputs": [
        {
          "internalType": "string",
          "name": "",
          "type": "string"
        }
      ],
      "stateMutability": "view",
      "type": "function"
    },
    {
      "inputs": [],
      "name": "owner",
      "outputs": [
        {
          "internalType": "address",
          "name": "",
          "type": "address"
        }
      ],
      "stateMutability": "view",
      "type": "function"
    },
    {
      "inputs": [
        {
          "internalType": "uint256",
          "name": "tokenId",
          "type": "uint256"
        }
      ],
      "name": "ownerOf",
      "outputs": [
        {
          "internalType": "address",
          "name": "",
          "type": "address"
        }
      ],
      "stateMutability": "view",
      "type": "function"
    },
    {
      "inputs": [
        {
          "internalType": "address",
          "name": "from",
          "type": "address"
        },
        {
          "internalType": "address",
          "name": "to",
          "type": "address"
        },
        {
          "internalType": "uint256",
          "name": "tokenId",
          "type": "uint256"
        }
      ],
      "name": "safeTransferFrom",
      "outputs": [],
      "stateMutability": "nonpayable",
      "type": "function"
    },
    {
      "inputs": [
        {
          "internalType": "address",
          "name": "from",
          "type": "address"
        },
        {
          "internalType": "address",
          "name": "to",
          "type": "address"
        },
        {
          "internalType": "uint256",
          "name": "tokenId",
          "type": "uint256"
        },
        {
          "internalType": "bytes",
          "name": "data",
          "type": "bytes"
        }
      ],
      "name": "safeTransferFrom",
      "outputs": [],
      "stateMutability": "nonpayable",
      "type": "function"
    },
    {
      "inputs": [
        {
          "internalType": "uint256",
          "name": "",
          "type": "uint256"
        },
        {
          "internalType": "uint256",
          "name": "",
          "type": "uint256"
        }
      ],
      "name": "seatTaken",
      "outputs": [
        {
          "internalType": "address",
          "name": "",
          "type": "address"
        }
      ],
      "stateMutability": "view",
      "type": "function"
    },
    {
      "inputs": [
        {
          "internalType": "address",
          "name": "operator",
          "type": "address"
        },
        {
          "internalType": "bool",
          "name": "approved",
          "type": "bool"
        }
      ],
      "name": "setApprovalForAll",
      "outputs": [],
      "stateMutability": "nonpayable",
      "type": "function"
    },
    {
      "inputs": [
        {
          "internalType": "bytes4",
          "name": "interfaceId",
          "type": "bytes4"
        }
      ],
      "name": "supportsInterface",
      "outputs": [
        {
          "internalType": "bool",
          "name": "",
          "type": "bool"
        }
      ],
      "stateMutability": "view",
      "type": "function"
    },
    {
      "inputs": [],
      "name": "symbol",
      "outputs": [
        {
          "internalType": "string",
          "name": "",
          "type": "string"
        }
      ],
      "stateMutability": "view",
      "type": "function"
    },
    {
      "inputs": [
        {
          "internalType": "uint256",
          "name": "tokenId",
          "type": "uint256"
        }
      ],
      "name": "tokenURI",
      "outputs": [
        {
          "internalType": "string",
          "name": "",
          "type": "string"
        }
      ],
      "stateMutability": "view",
      "type": "function"
    },
    {
      "inputs": [],
      "name": "totalOccasions",
      "outputs": [
        {
          "internalType": "uint256",
          "name": "",
          "type": "uint256"
        }
      ],
      "stateMutability": "view",
      "type": "function"
    },
    {
      "inputs": [],
      "name": "totalSupply",
      "outputs": [
        {
          "internalType": "uint256",
          "name": "",
          "type": "uint256"
        }
      ],
      "stateMutability": "view",
      "type": "function"
    },
    {
      "inputs": [
        {
          "internalType": "address",
          "name": "from",
          "type": "address"
        },
        {
          "internalType": "address",
          "name": "to",
          "type": "address"
        },
        {
          "internalType": "uint256",
          "name": "tokenId",
          "type": "uint256"
        }
      ],
      "name": "transferFrom",
      "outputs": [],
      "stateMutability": "nonpayable",
      "type": "function"
    },
    {
      "inputs": [],
      "name": "withdraw",
      "outputs": [],
      "stateMutability": "nonpayable",
      "type": "function"
    }
  ],
  "bytecode": "0x60806040523480156200001157600080fd5b5060405162003d7e38038062003d7e83398181016040528101906200003791906200023b565b818181600090816200004a91906200050b565b5080600190816200005c91906200050b565b50505033600660006101000a81548173ffffffffffffffffffffffffffffffffffffffff021916908373ffffffffffffffffffffffffffffffffffffffff1602179055505050620005f2565b6000604051905090565b600080fd5b600080fd5b600080fd5b600080fd5b6000601f19601f8301169050919050565b7f4e487b7100000000000000000000000000000000000000000000000000000000600052604160045260246000fd5b6200011182620000c6565b810181811067ffffffffffffffff82111715620001335762000132620000d7565b5b80604052505050565b600062000148620000a8565b905062000156828262000106565b919050565b600067ffffffffffffffff821115620001795762000178620000d7565b5b6200018482620000c6565b9050602081019050919050565b60005b83811015620001b157808201518184015260208101905062000194565b60008484015250505050565b6000620001d4620001ce846200015b565b6200013c565b905082815260208101848484011115620001f357620001f2620000c1565b5b6200020084828562000191565b509392505050565b600082601f83011262000220576200021f620000bc565b5b815162000232848260208601620001bd565b91505092915050565b60008060408385031215620002555762000254620000b2565b5b600083015167ffffffffffffffff811115620002765762000275620000b7565b5b620002848582860162000208565b925050602083015167ffffffffffffffff811115620002a857620002a7620000b7565b5b620002b68582860162000208565b9150509250929050565b600081519050919050565b7f4e487b7100000000000000000000000000000000000000000000000000000000600052602260045260246000fd5b600060028204905060018216806200031357607f821691505b602082108103620003295762000328620002cb565b5b50919050565b60008190508160005260206000209050919050565b60006020601f8301049050919050565b600082821b905092915050565b600060088302620003937fffffffffffffffffffffffffffffffffffffffffffffffffffffffffffffffff8262000354565b6200039f868362000354565b95508019841693508086168417925050509392505050565b6000819050919050565b6000819050919050565b6000620003ec620003e6620003e084620003b7565b620003c1565b620003b7565b9050919050565b6000819050919050565b6200040883620003cb565b620004206200041782620003f3565b84845462000361565b825550505050565b600090565b6200043762000428565b62000444818484620003fd565b505050565b5b818110156200046c57620004606000826200042d565b6001810190506200044a565b5050565b601f821115620004bb5762000485816200032f565b620004908462000344565b81016020851015620004a0578190505b620004b8620004af8562000344565b83018262000449565b50505b505050565b600082821c905092915050565b6000620004e060001984600802620004c0565b1980831691505092915050565b6000620004fb8383620004cd565b9150826002028217905092915050565b6200051682620002c0565b67ffffffffffffffff811115620005325762000531620000d7565b5b6200053e8254620002fa565b6200054b82828562000470565b600060209050601f8311600181146200058357600084156200056e578287015190505b6200057a8582620004ed565b865550620005ea565b601f19841662000593866200032f565b60005b82811015620005bd5784890151825560018201915060208501945060208101905062000596565b86831015620005dd5784890151620005d9601f891682620004cd565b8355505b6001600288020188555050505b505050505050565b61377c80620006026000396000f3fe6080604052600436106101405760003560e01c806370a08231116100b65780639cb04aef1161006f5780639cb04aef14610461578063a22cb4651461049e578063af296da1146104c7578063b88d4fde14610504578063c87b56dd1461052d578063e985e9c51461056a57610140565b806370a082311461033d57806374bc86561461037a5780638da5cb5b146103b7578063953865c1146103e257806395d89b411461040d5780639a382f0f1461043857610140565b806318160ddd1161010857806318160ddd146102505780631b2ef1ca1461027b57806323b872dd146102975780633ccfd60b146102c057806342842e0e146102d75780636352211e1461030057610140565b806301ffc9a71461014557806306fdde0314610182578063081812fc146101ad578063095ea7b3146101ea5780630ef7ec7414610213575b600080fd5b34801561015157600080fd5b5061016c600480360381019061016791906122da565b6105a7565b6040516101799190612322565b60405180910390f35b34801561018e57600080fd5b50610197610689565b6040516101a491906123cd565b60405180910390f35b3480156101b957600080fd5b506101d460048036038101906101cf9190612425565b61071b565b6040516101e19190612493565b60405180910390f35b3480156101f657600080fd5b50610211600480360381019061020c91906124da565b610761565b005b34801561021f57600080fd5b5061023a60048036038101906102359190612425565b610878565b60405161024791906125d8565b60405180910390f35b34801561025c57600080fd5b506102656108e3565b6040516102729190612609565b60405180910390f35b61029560048036038101906102909190612624565b6108e9565b005b3480156102a357600080fd5b506102be60048036038101906102b99190612664565b610b24565b005b3480156102cc57600080fd5b506102d5610b84565b005b3480156102e357600080fd5b506102fe60048036038101906102f99190612664565b610c6f565b005b34801561030c57600080fd5b5061032760048036038101906103229190612425565b610c8f565b6040516103349190612493565b60405180910390f35b34801561034957600080fd5b50610364600480360381019061035f91906126b7565b610d15565b6040516103719190612609565b60405180910390f35b34801561038657600080fd5b506103a1600480360381019061039c9190612425565b610dcc565b6040516103ae91906127f3565b60405180910390f35b3480156103c357600080fd5b506103cc61106a565b6040516103d99190612493565b60405180910390f35b3480156103ee57600080fd5b506103f7611090565b6040516104049190612609565b60405180910390f35b34801561041957600080fd5b50610422611096565b60405161042f91906123cd565b60405180910390f35b34801561044457600080fd5b5061045f600480360381019061045a919061294a565b611128565b005b34801561046d57600080fd5b5061048860048036038101906104839190612a47565b611276565b6040516104959190612322565b60405180910390f35b3480156104aa57600080fd5b506104c560048036038101906104c09190612ab3565b6112a5565b005b3480156104d357600080fd5b506104ee60048036038101906104e99190612624565b6112bb565b6040516104fb9190612493565b60405180910390f35b34801561051057600080fd5b5061052b60048036038101906105269190612b94565b6112fd565b005b34801561053957600080fd5b50610554600480360381019061054f9190612425565b61135f565b60405161056191906123cd565b60405180910390f35b34801561057657600080fd5b50610591600480360381019061058c9190612c17565b6113c7565b60405161059e9190612322565b60405180910390f35b60007f80ac58cd000000000000000000000000000000000000000000000000000000007bffffffffffffffffffffffffffffffffffffffffffffffffffffffff1916827bffffffffffffffffffffffffffffffffffffffffffffffffffffffff1916148061067257507f5b5e139f000000000000000000000000000000000000000000000000000000007bffffffffffffffffffffffffffffffffffffffffffffffffffffffff1916827bffffffffffffffffffffffffffffffffffffffffffffffffffffffff1916145b8061068257506106818261145b565b5b9050919050565b60606000805461069890612c86565b80601f01602080910402602001604051908101604052809291908181526020018280546106c490612c86565b80156107115780601f106106e657610100808354040283529160200191610711565b820191906000526020600020905b8154815290600101906020018083116106f457829003601f168201915b5050505050905090565b6000610726826114c5565b6004600083815260200190815260200160002060009054906101000a900473ffffffffffffffffffffffffffffffffffffffff169050919050565b600061076c82610c8f565b90508073ffffffffffffffffffffffffffffffffffffffff168373ffffffffffffffffffffffffffffffffffffffff16036107dc576040517f08c379a00000000000000000000000000000000000000000000000000000000081526004016107d390612d29565b60405180910390fd5b8073ffffffffffffffffffffffffffffffffffffffff166107fb611510565b73ffffffffffffffffffffffffffffffffffffffff16148061082a575061082981610824611510565b6113c7565b5b610869576040517f08c379a000000000000000000000000000000000000000000000000000000000815260040161086090612dbb565b60405180910390fd5b6108738383611518565b505050565b6060600c60008381526020019081526020016000208054806020026020016040519081016040528092919081815260200182805480156108d757602002820191906000526020600020905b8154815260200190600101908083116108c3575b50505050509050919050565b60085481565b600082036108f657600080fd5b60075482111561090557600080fd5b600960008381526020019081526020016000206002015434101561092857600080fd5b600073ffffffffffffffffffffffffffffffffffffffff16600b6000848152602001908152602001600020600083815260200190815260200160002060009054906101000a900473ffffffffffffffffffffffffffffffffffffffff1673ffffffffffffffffffffffffffffffffffffffff16146109a557600080fd5b60096000838152602001908152602001600020600401548111156109c857600080fd5b60016009600084815260200190815260200160002060030160008282546109ef9190612e0a565b925050819055506001600a600084815260200190815260200160002060003373ffffffffffffffffffffffffffffffffffffffff1673ffffffffffffffffffffffffffffffffffffffff16815260200190815260200160002060006101000a81548160ff02191690831515021790555033600b6000848152602001908152602001600020600083815260200190815260200160002060006101000a81548173ffffffffffffffffffffffffffffffffffffffff021916908373ffffffffffffffffffffffffffffffffffffffff160217905550600c600083815260200190815260200160002081908060018154018082558091505060019003906000526020600020016000909190919091505560086000815480929190610b0f90612e3e565b9190505550610b20336008546115d1565b5050565b610b35610b2f611510565b826115ef565b610b74576040517f08c379a0000000000000000000000000000000000000000000000000000000008152600401610b6b90612ef8565b60405180910390fd5b610b7f838383611684565b505050565b600660009054906101000a900473ffffffffffffffffffffffffffffffffffffffff1673ffffffffffffffffffffffffffffffffffffffff163373ffffffffffffffffffffffffffffffffffffffff1614610bde57600080fd5b6000600660009054906101000a900473ffffffffffffffffffffffffffffffffffffffff1673ffffffffffffffffffffffffffffffffffffffff1647604051610c2690612f49565b60006040518083038185875af1925050503d8060008114610c63576040519150601f19603f3d011682016040523d82523d6000602084013e610c68565b606091505b5050905050565b610c8a838383604051806020016040528060008152506112fd565b505050565b600080610c9b8361197d565b9050600073ffffffffffffffffffffffffffffffffffffffff168173ffffffffffffffffffffffffffffffffffffffff1603610d0c576040517f08c379a0000000000000000000000000000000000000000000000000000000008152600401610d0390612faa565b60405180910390fd5b80915050919050565b60008073ffffffffffffffffffffffffffffffffffffffff168273ffffffffffffffffffffffffffffffffffffffff1603610d85576040517f08c379a0000000000000000000000000000000000000000000000000000000008152600401610d7c9061303c565b60405180910390fd5b600360008373ffffffffffffffffffffffffffffffffffffffff1673ffffffffffffffffffffffffffffffffffffffff168152602001908152602001600020549050919050565b610dd4612229565b600960008381526020019081526020016000206040518061010001604052908160008201548152602001600182018054610e0d90612c86565b80601f0160208091040260200160405190810160405280929190818152602001828054610e3990612c86565b8015610e865780601f10610e5b57610100808354040283529160200191610e86565b820191906000526020600020905b815481529060010190602001808311610e6957829003601f168201915b50505050508152602001600282015481526020016003820154815260200160048201548152602001600582018054610ebd90612c86565b80601f0160208091040260200160405190810160405280929190818152602001828054610ee990612c86565b8015610f365780601f10610f0b57610100808354040283529160200191610f36565b820191906000526020600020905b815481529060010190602001808311610f1957829003601f168201915b50505050508152602001600682018054610f4f90612c86565b80601f0160208091040260200160405190810160405280929190818152602001828054610f7b90612c86565b8015610fc85780601f10610f9d57610100808354040283529160200191610fc8565b820191906000526020600020905b815481529060010190602001808311610fab57829003601f168201915b50505050508152602001600782018054610fe190612c86565b80601f016020809104026020016040519081016040528092919081815260200182805461100d90612c86565b801561105a5780601f1061102f5761010080835404028352916020019161105a565b820191906000526020600020905b81548152906001019060200180831161103d57829003601f168201915b5050505050815250509050919050565b600660009054906101000a900473ffffffffffffffffffffffffffffffffffffffff1681565b60075481565b6060600180546110a590612c86565b80601f01602080910402602001604051908101604052809291908181526020018280546110d190612c86565b801561111e5780601f106110f35761010080835404028352916020019161111e565b820191906000526020600020905b81548152906001019060200180831161110157829003601f168201915b5050505050905090565b600660009054906101000a900473ffffffffffffffffffffffffffffffffffffffff1673ffffffffffffffffffffffffffffffffffffffff163373ffffffffffffffffffffffffffffffffffffffff161461118257600080fd5b6007600081548092919061119590612e3e565b919050555060405180610100016040528060075481526020018781526020018681526020018581526020018581526020018481526020018381526020018281525060096000600754815260200190815260200160002060008201518160000155602082015181600101908161120a9190613208565b5060408201518160020155606082015181600301556080820151816004015560a082015181600501908161123e9190613208565b5060c08201518160060190816112549190613208565b5060e082015181600701908161126a9190613208565b50905050505050505050565b600a6020528160005260406000206020528060005260406000206000915091509054906101000a900460ff1681565b6112b76112b0611510565b83836119ba565b5050565b600b6020528160005260406000206020528060005260406000206000915091509054906101000a900473ffffffffffffffffffffffffffffffffffffffff1681565b61130e611308611510565b836115ef565b61134d576040517f08c379a000000000000000000000000000000000000000000000000000000000815260040161134490612ef8565b60405180910390fd5b61135984848484611b26565b50505050565b606061136a826114c5565b6000611374611b82565b9050600081511161139457604051806020016040528060008152506113bf565b8061139e84611b99565b6040516020016113af929190613316565b6040516020818303038152906040525b915050919050565b6000600560008473ffffffffffffffffffffffffffffffffffffffff1673ffffffffffffffffffffffffffffffffffffffff16815260200190815260200160002060008373ffffffffffffffffffffffffffffffffffffffff1673ffffffffffffffffffffffffffffffffffffffff16815260200190815260200160002060009054906101000a900460ff16905092915050565b60007f01ffc9a7000000000000000000000000000000000000000000000000000000007bffffffffffffffffffffffffffffffffffffffffffffffffffffffff1916827bffffffffffffffffffffffffffffffffffffffffffffffffffffffff1916149050919050565b6114ce81611c67565b61150d576040517f08c379a000000000000000000000000000000000000000000000000000000000815260040161150490612faa565b60405180910390fd5b50565b600033905090565b816004600083815260200190815260200160002060006101000a81548173ffffffffffffffffffffffffffffffffffffffff021916908373ffffffffffffffffffffffffffffffffffffffff160217905550808273ffffffffffffffffffffffffffffffffffffffff1661158b83610c8f565b73ffffffffffffffffffffffffffffffffffffffff167f8c5be1e5ebec7d5bd14f71427d1e84f3dd0314c0f7b2291e5b200ac8c7c3b92560405160405180910390a45050565b6115eb828260405180602001604052806000815250611ca8565b5050565b6000806115fb83610c8f565b90508073ffffffffffffffffffffffffffffffffffffffff168473ffffffffffffffffffffffffffffffffffffffff16148061163d575061163c81856113c7565b5b8061167b57508373ffffffffffffffffffffffffffffffffffffffff166116638461071b565b73ffffffffffffffffffffffffffffffffffffffff16145b91505092915050565b8273ffffffffffffffffffffffffffffffffffffffff166116a482610c8f565b73ffffffffffffffffffffffffffffffffffffffff16146116fa576040517f08c379a00000000000000000000000000000000000000000000000000000000081526004016116f1906133ac565b60405180910390fd5b600073ffffffffffffffffffffffffffffffffffffffff168273ffffffffffffffffffffffffffffffffffffffff1603611769576040517f08c379a00000000000000000000000000000000000000000000000000000000081526004016117609061343e565b60405180910390fd5b6117768383836001611d03565b8273ffffffffffffffffffffffffffffffffffffffff1661179682610c8f565b73ffffffffffffffffffffffffffffffffffffffff16146117ec576040517f08c379a00000000000000000000000000000000000000000000000000000000081526004016117e3906133ac565b60405180910390fd5b6004600082815260200190815260200160002060006101000a81549073ffffffffffffffffffffffffffffffffffffffff02191690556001600360008573ffffffffffffffffffffffffffffffffffffffff1673ffffffffffffffffffffffffffffffffffffffff168152602001908152602001600020600082825403925050819055506001600360008473ffffffffffffffffffffffffffffffffffffffff1673ffffffffffffffffffffffffffffffffffffffff16815260200190815260200160002060008282540192505081905550816002600083815260200190815260200160002060006101000a81548173ffffffffffffffffffffffffffffffffffffffff021916908373ffffffffffffffffffffffffffffffffffffffff160217905550808273ffffffffffffffffffffffffffffffffffffffff168473ffffffffffffffffffffffffffffffffffffffff167fddf252ad1be2c89b69c2b068fc378daa952ba7f163c4a11628f55a4df523b3ef60405160405180910390a46119788383836001611d09565b505050565b60006002600083815260200190815260200160002060009054906101000a900473ffffffffffffffffffffffffffffffffffffffff169050919050565b8173ffffffffffffffffffffffffffffffffffffffff168373ffffffffffffffffffffffffffffffffffffffff1603611a28576040517f08c379a0000000000000000000000000000000000000000000000000000000008152600401611a1f906134aa565b60405180910390fd5b80600560008573ffffffffffffffffffffffffffffffffffffffff1673ffffffffffffffffffffffffffffffffffffffff16815260200190815260200160002060008473ffffffffffffffffffffffffffffffffffffffff1673ffffffffffffffffffffffffffffffffffffffff16815260200190815260200160002060006101000a81548160ff0219169083151502179055508173ffffffffffffffffffffffffffffffffffffffff168373ffffffffffffffffffffffffffffffffffffffff167f17307eab39ab6107e8899845ad3d59bd9653f200f220920489ca2b5937696c3183604051611b199190612322565b60405180910390a3505050565b611b31848484611684565b611b3d84848484611d0f565b611b7c576040517f08c379a0000000000000000000000000000000000000000000000000000000008152600401611b739061353c565b60405180910390fd5b50505050565b606060405180602001604052806000815250905090565b606060006001611ba884611e96565b01905060008167ffffffffffffffff811115611bc757611bc661281f565b5b6040519080825280601f01601f191660200182016040528015611bf95781602001600182028036833780820191505090505b509050600082602001820190505b600115611c5c578080600190039150507f3031323334353637383961626364656600000000000000000000000000000000600a86061a8153600a8581611c5057611c4f61355c565b5b04945060008503611c07575b819350505050919050565b60008073ffffffffffffffffffffffffffffffffffffffff16611c898361197d565b73ffffffffffffffffffffffffffffffffffffffff1614159050919050565b611cb28383611fe9565b611cbf6000848484611d0f565b611cfe576040517f08c379a0000000000000000000000000000000000000000000000000000000008152600401611cf59061353c565b60405180910390fd5b505050565b50505050565b50505050565b6000611d308473ffffffffffffffffffffffffffffffffffffffff16612206565b15611e89578373ffffffffffffffffffffffffffffffffffffffff1663150b7a02611d59611510565b8786866040518563ffffffff1660e01b8152600401611d7b94939291906135e0565b6020604051808303816000875af1925050508015611db757506040513d601f19601f82011682018060405250810190611db49190613641565b60015b611e39573d8060008114611de7576040519150601f19603f3d011682016040523d82523d6000602084013e611dec565b606091505b506000815103611e31576040517f08c379a0000000000000000000000000000000000000000000000000000000008152600401611e289061353c565b60405180910390fd5b805181602001fd5b63150b7a0260e01b7bffffffffffffffffffffffffffffffffffffffffffffffffffffffff1916817bffffffffffffffffffffffffffffffffffffffffffffffffffffffff191614915050611e8e565b600190505b949350505050565b600080600090507a184f03e93ff9f4daa797ed6e38ed64bf6a1f0100000000000000008310611ef4577a184f03e93ff9f4daa797ed6e38ed64bf6a1f0100000000000000008381611eea57611ee961355c565b5b0492506040810190505b6d04ee2d6d415b85acef81000000008310611f31576d04ee2d6d415b85acef81000000008381611f2757611f2661355c565b5b0492506020810190505b662386f26fc100008310611f6057662386f26fc100008381611f5657611f5561355c565b5b0492506010810190505b6305f5e1008310611f89576305f5e1008381611f7f57611f7e61355c565b5b0492506008810190505b6127108310611fae576127108381611fa457611fa361355c565b5b0492506004810190505b60648310611fd15760648381611fc757611fc661355c565b5b0492506002810190505b600a8310611fe0576001810190505b80915050919050565b600073ffffffffffffffffffffffffffffffffffffffff168273ffffffffffffffffffffffffffffffffffffffff1603612058576040517f08c379a000000000000000000000000000000000000000000000000000000000815260040161204f906136ba565b60405180910390fd5b61206181611c67565b156120a1576040517f08c379a000000000000000000000000000000000000000000000000000000000815260040161209890613726565b60405180910390fd5b6120af600083836001611d03565b6120b881611c67565b156120f8576040517f08c379a00000000000000000000000000000000000000000000000000000000081526004016120ef90613726565b60405180910390fd5b6001600360008473ffffffffffffffffffffffffffffffffffffffff1673ffffffffffffffffffffffffffffffffffffffff16815260200190815260200160002060008282540192505081905550816002600083815260200190815260200160002060006101000a81548173ffffffffffffffffffffffffffffffffffffffff021916908373ffffffffffffffffffffffffffffffffffffffff160217905550808273ffffffffffffffffffffffffffffffffffffffff16600073ffffffffffffffffffffffffffffffffffffffff167fddf252ad1be2c89b69c2b068fc378daa952ba7f163c4a11628f55a4df523b3ef60405160405180910390a4612202600083836001611d09565b5050565b6000808273ffffffffffffffffffffffffffffffffffffffff163b119050919050565b60405180610100016040528060008152602001606081526020016000815260200160008152602001600081526020016060815260200160608152602001606081525090565b6000604051905090565b600080fd5b600080fd5b60007fffffffff0000000000000000000000000000000000000000000000000000000082169050919050565b6122b781612282565b81146122c257600080fd5b50565b6000813590506122d4816122ae565b92915050565b6000602082840312156122f0576122ef612278565b5b60006122fe848285016122c5565b91505092915050565b60008115159050919050565b61231c81612307565b82525050565b60006020820190506123376000830184612313565b92915050565b600081519050919050565b600082825260208201905092915050565b60005b8381101561237757808201518184015260208101905061235c565b60008484015250505050565b6000601f19601f8301169050919050565b600061239f8261233d565b6123a98185612348565b93506123b9818560208601612359565b6123c281612383565b840191505092915050565b600060208201905081810360008301526123e78184612394565b905092915050565b6000819050919050565b612402816123ef565b811461240d57600080fd5b50565b60008135905061241f816123f9565b92915050565b60006020828403121561243b5761243a612278565b5b600061244984828501612410565b91505092915050565b600073ffffffffffffffffffffffffffffffffffffffff82169050919050565b600061247d82612452565b9050919050565b61248d81612472565b82525050565b60006020820190506124a86000830184612484565b92915050565b6124b781612472565b81146124c257600080fd5b50565b6000813590506124d4816124ae565b92915050565b600080604083850312156124f1576124f0612278565b5b60006124ff858286016124c5565b925050602061251085828601612410565b9150509250929050565b600081519050919050565b600082825260208201905092915050565b6000819050602082019050919050565b61254f816123ef565b82525050565b60006125618383612546565b60208301905092915050565b6000602082019050919050565b60006125858261251a565b61258f8185612525565b935061259a83612536565b8060005b838110156125cb5781516125b28882612555565b97506125bd8361256d565b92505060018101905061259e565b5085935050505092915050565b600060208201905081810360008301526125f2818461257a565b905092915050565b612603816123ef565b82525050565b600060208201905061261e60008301846125fa565b92915050565b6000806040838503121561263b5761263a612278565b5b600061264985828601612410565b925050602061265a85828601612410565b9150509250929050565b60008060006060848603121561267d5761267c612278565b5b600061268b868287016124c5565b935050602061269c868287016124c5565b92505060406126ad86828701612410565b9150509250925092565b6000602082840312156126cd576126cc612278565b5b60006126db848285016124c5565b91505092915050565b600082825260208201905092915050565b60006127008261233d565b61270a81856126e4565b935061271a818560208601612359565b61272381612383565b840191505092915050565b6000610100830160008301516127476000860182612546565b506020830151848203602086015261275f82826126f5565b91505060408301516127746040860182612546565b5060608301516127876060860182612546565b50608083015161279a6080860182612546565b5060a083015184820360a08601526127b282826126f5565b91505060c083015184820360c08601526127cc82826126f5565b91505060e083015184820360e08601526127e682826126f5565b9150508091505092915050565b6000602082019050818103600083015261280d818461272e565b905092915050565b600080fd5b600080fd5b7f4e487b7100000000000000000000000000000000000000000000000000000000600052604160045260246000fd5b61285782612383565b810181811067ffffffffffffffff821117156128765761287561281f565b5b80604052505050565b600061288961226e565b9050612895828261284e565b919050565b600067ffffffffffffffff8211156128b5576128b461281f565b5b6128be82612383565b9050602081019050919050565b82818337600083830152505050565b60006128ed6128e88461289a565b61287f565b9050828152602081018484840111156129095761290861281a565b5b6129148482856128cb565b509392505050565b600082601f83011261293157612930612815565b5b81356129418482602086016128da565b91505092915050565b60008060008060008060c0878903121561296757612966612278565b5b600087013567ffffffffffffffff8111156129855761298461227d565b5b61299189828a0161291c565b96505060206129a289828a01612410565b95505060406129b389828a01612410565b945050606087013567ffffffffffffffff8111156129d4576129d361227d565b5b6129e089828a0161291c565b935050608087013567ffffffffffffffff811115612a0157612a0061227d565b5b612a0d89828a0161291c565b92505060a087013567ffffffffffffffff811115612a2e57612a2d61227d565b5b612a3a89828a0161291c565b9150509295509295509295565b60008060408385031215612a5e57612a5d612278565b5b6000612a6c85828601612410565b9250506020612a7d858286016124c5565b9150509250929050565b612a9081612307565b8114612a9b57600080fd5b50565b600081359050612aad81612a87565b92915050565b60008060408385031215612aca57612ac9612278565b5b6000612ad8858286016124c5565b9250506020612ae985828601612a9e565b9150509250929050565b600067ffffffffffffffff821115612b0e57612b0d61281f565b5b612b1782612383565b9050602081019050919050565b6000612b37612b3284612af3565b61287f565b905082815260208101848484011115612b5357612b5261281a565b5b612b5e8482856128cb565b509392505050565b600082601f830112612b7b57612b7a612815565b5b8135612b8b848260208601612b24565b91505092915050565b60008060008060808587031215612bae57612bad612278565b5b6000612bbc878288016124c5565b9450506020612bcd878288016124c5565b9350506040612bde87828801612410565b925050606085013567ffffffffffffffff811115612bff57612bfe61227d565b5b612c0b87828801612b66565b91505092959194509250565b60008060408385031215612c2e57612c2d612278565b5b6000612c3c858286016124c5565b9250506020612c4d858286016124c5565b9150509250929050565b7f4e487b7100000000000000000000000000000000000000000000000000000000600052602260045260246000fd5b60006002820490506001821680612c9e57607f821691505b602082108103612cb157612cb0612c57565b5b50919050565b7f4552433732313a20617070726f76616c20746f2063757272656e74206f776e6560008201527f7200000000000000000000000000000000000000000000000000000000000000602082015250565b6000612d13602183612348565b9150612d1e82612cb7565b604082019050919050565b60006020820190508181036000830152612d4281612d06565b9050919050565b7f4552433732313a20617070726f76652063616c6c6572206973206e6f7420746f60008201527f6b656e206f776e6572206f7220617070726f76656420666f7220616c6c000000602082015250565b6000612da5603d83612348565b9150612db082612d49565b604082019050919050565b60006020820190508181036000830152612dd481612d98565b9050919050565b7f4e487b7100000000000000000000000000000000000000000000000000000000600052601160045260246000fd5b6000612e15826123ef565b9150612e20836123ef565b9250828203905081811115612e3857612e37612ddb565b5b92915050565b6000612e49826123ef565b91507fffffffffffffffffffffffffffffffffffffffffffffffffffffffffffffffff8203612e7b57612e7a612ddb565b5b600182019050919050565b7f4552433732313a2063616c6c6572206973206e6f7420746f6b656e206f776e6560008201527f72206f7220617070726f76656400000000000000000000000000000000000000602082015250565b6000612ee2602d83612348565b9150612eed82612e86565b604082019050919050565b60006020820190508181036000830152612f1181612ed5565b9050919050565b600081905092915050565b50565b6000612f33600083612f18565b9150612f3e82612f23565b600082019050919050565b6000612f5482612f26565b9150819050919050565b7f4552433732313a20696e76616c696420746f6b656e2049440000000000000000600082015250565b6000612f94601883612348565b9150612f9f82612f5e565b602082019050919050565b60006020820190508181036000830152612fc381612f87565b9050919050565b7f4552433732313a2061646472657373207a65726f206973206e6f74206120766160008201527f6c6964206f776e65720000000000000000000000000000000000000000000000602082015250565b6000613026602983612348565b915061303182612fca565b604082019050919050565b6000602082019050818103600083015261305581613019565b9050919050565b60008190508160005260206000209050919050565b60006020601f8301049050919050565b600082821b905092915050565b6000600883026130be7fffffffffffffffffffffffffffffffffffffffffffffffffffffffffffffffff82613081565b6130c88683613081565b95508019841693508086168417925050509392505050565b6000819050919050565b60006131056131006130fb846123ef565b6130e0565b6123ef565b9050919050565b6000819050919050565b61311f836130ea565b61313361312b8261310c565b84845461308e565b825550505050565b600090565b61314861313b565b613153818484613116565b505050565b5b818110156131775761316c600082613140565b600181019050613159565b5050565b601f8211156131bc5761318d8161305c565b61319684613071565b810160208510156131a5578190505b6131b96131b185613071565b830182613158565b50505b505050565b600082821c905092915050565b60006131df600019846008026131c1565b1980831691505092915050565b60006131f883836131ce565b9150826002028217905092915050565b6132118261233d565b67ffffffffffffffff81111561322a5761322961281f565b5b6132348254612c86565b61323f82828561317b565b600060209050601f8311600181146132725760008415613260578287015190505b61326a85826131ec565b8655506132d2565b601f1984166132808661305c565b60005b828110156132a857848901518255600182019150602085019450602081019050613283565b868310156132c557848901516132c1601f8916826131ce565b8355505b6001600288020188555050505b505050505050565b600081905092915050565b60006132f08261233d565b6132fa81856132da565b935061330a818560208601612359565b80840191505092915050565b600061332282856132e5565b915061332e82846132e5565b91508190509392505050565b7f4552433732313a207472616e736665722066726f6d20696e636f72726563742060008201527f6f776e6572000000000000000000000000000000000000000000000000000000602082015250565b6000613396602583612348565b91506133a18261333a565b604082019050919050565b600060208201905081810360008301526133c581613389565b9050919050565b7f4552433732313a207472616e7366657220746f20746865207a65726f2061646460008201527f7265737300000000000000000000000000000000000000000000000000000000602082015250565b6000613428602483612348565b9150613433826133cc565b604082019050919050565b600060208201905081810360008301526134578161341b565b9050919050565b7f4552433732313a20617070726f766520746f2063616c6c657200000000000000600082015250565b6000613494601983612348565b915061349f8261345e565b602082019050919050565b600060208201905081810360008301526134c381613487565b9050919050565b7f4552433732313a207472616e7366657220746f206e6f6e20455243373231526560008201527f63656976657220696d706c656d656e7465720000000000000000000000000000602082015250565b6000613526603283612348565b9150613531826134ca565b604082019050919050565b6000602082019050818103600083015261355581613519565b9050919050565b7f4e487b7100000000000000000000000000000000000000000000000000000000600052601260045260246000fd5b600081519050919050565b600082825260208201905092915050565b60006135b28261358b565b6135bc8185613596565b93506135cc818560208601612359565b6135d581612383565b840191505092915050565b60006080820190506135f56000830187612484565b6136026020830186612484565b61360f60408301856125fa565b818103606083015261362181846135a7565b905095945050505050565b60008151905061363b816122ae565b92915050565b60006020828403121561365757613656612278565b5b60006136658482850161362c565b91505092915050565b7f4552433732313a206d696e7420746f20746865207a65726f2061646472657373600082015250565b60006136a4602083612348565b91506136af8261366e565b602082019050919050565b600060208201905081810360008301526136d381613697565b9050919050565b7f4552433732313a20746f6b656e20616c7265616479206d696e74656400000000600082015250565b6000613710601c83612348565b915061371b826136da565b602082019050919050565b6000602082019050818103600083015261373f81613703565b905091905056fea2646970667358221220c0a5343ac3333ab7b65b73794aec3725d05bf140edca3a4402ec2b50416a193f64736f6c63430008110033",
  "linkReferences": {},
  "deployedLinkReferences": {}
}